:100000000C94B8130C94E0130C94E0130C94E013CC
:100010000C94E0130C94E0130C94E0130C94E01394
:100020000C94E0130C94E0130C94E0130C94E01384
:100030000C94E0130C94E0130C94E0130C94E01374
:100040000C940F180C94E0130C94DD170C94B71754
:100050000C94E0130C94E0130C94E0130C94E01354
:100060000C9459180C94E01300000000000000B636
:10007000B6B6B6B6B6B6B6B6B6000000000000001A
:100080000000000000B6B6B6B6B6B6B6B6B6B6B69E
:10009000B6B6B6000000000000000000B6B6B6B666
:1000A000B6B6B6B6B6B6B6B6B6B6B6B600000000C8
:1000B000000000B6B6B6B6B6B6B6B6B6B6B6B6B602
:1000C000B6B6B6B6B60000000000B6B6B6B6B6B65E
:1000D000B6B6B6FFFFB6B6B6B6B6B6B6B6B600009A
:1000E00000B6B6B6B6B6B6B6B6B6B6FFFF92B6B6F8
:1000F000B6B6B6B6B6B6B60000B6B6B6B6B6B6B60C
:10010000FFDBB6FFFF92DBFFB6B6B6B6B6B6B600FB
:10011000B6B6B6B6B6B6B6FFFFDB92FFFF92DBFF10
:10012000FFB6B6B6B6B6B6B6B6B6B6B6B6B6FFFF94
:10013000FF9292FFFF9292FFFFFFB6B6B6B6B6B639
:10014000B6B6B6B6B6DBFFFF929292FFFF929292DE
:10015000FFFFDB92B6B6B6B6B6B6B6B6B6FFFFB61A
:10016000929292FFFF929292B6FFFF9292B6B6B62B
:10017000B6B6B6B6B6FFFF92929292FFFF929292F7
:1001800092FFFF929292B6B6B6B6B6B6B6FFFF929F
:10019000929292929292929292FFFFB6929292B61D
:1001A000B6B6B6B6B6FFFF929292929292929292A1
:1001B00092FFFFB692929292B6B6B6B6B6FFFFB66F
:1001C0009292929292929292B6FFFF929292929211
:1001D000B6B6B6B6B6FFFFFF929292929292929204
:1001E000FFFFDB929292929292B6B6B6B6B6FFFF3E
:1001F000DB929292929292DBFFFF92929292929273
:1002000000B6B6B6B6B6DBFFFFFFB6B6B6B6FFFFB2
:10021000FFB69292929292000092B6B6B6B6B6DB54
:10022000FFFFFFFFFFFFFFFFB692929292929200B4
:100230000000B6B6B6B6B6B6B6DBFFFFFFFFDB9280
:100240009292929292920000000000B6B6B6B6B6B4
:10025000B692929292929292929292929200000010
:1002600000000000B6B6B6B6B6B6929292929292DE
:100270009292929200000000000000000092B6B638
:10028000B6B6B692929292929292920000000000BC
:100290000000000000000092B6B6B6B692929292AC
:1002A0009200000000000000000000000000005963
:1002B000595959595959595959000000000000001D
:1002C000000000000059797959797979597959797B
:1002D000795979000000000000000000795979790F
:1002E00059797979597959797959797900000000E2
:1002F0000000005959595959595959595959595979
:10030000595959595900000000005979795979799A
:10031000597979FFDF7959797959797959790000D3
:100320000059597979597979797A7AFFFF59797928
:100330007959797959797900005959595959597A1E
:10034000DFBF79FFFF59BFDF7A5959595959590011
:100350005979597979599AFFFFBF59FFFF59BFFF62
:10036000FF9A79795979795979795979797AFFFFA9
:10037000FF5959FFFF5959FFFFFF79795979795989
:100380005959595959BFFFFF593559FFFF59355927
:10039000FFFFBE59595959597979597979FFFF9A0F
:1003A000353559FFFF5935359AFFFF395979795954
:1003B000595959599AFFFF39353559FFFF59353584
:1003C00039FFFF5935595959797959799AFFFF35CC
:1003D000353535595935353535FFFF7A3535595964
:1003E000797959799AFFFF353535353535353535D4
:1003F00035FFFF7935353559797959797AFFFF79A4
:10040000353535353535353579FFFF5935353535A0
:100410005959595959DFFFDF3535353535353535BA
:10042000DFFFDF353535353559795979799AFFFF51
:10043000BF353535353535BFFFFF593535353535A0
:10044000007959797959BEFFFFFF9A79799AFFFFB0
:10045000FF9A35353535350000595959595959BE26
:10046000FFFFFFFFFFFFFFFF9A35353535353500BC
:100470000000597979597979799EDFFFFFDF9E591C
:1004800035353535353500000000007979597979F1
:100490005959353535353535353535353500000063
:1004A00000000000595959595959593535353535D4
:1004B000353535350000000000000000005979791D
:1004C0005979795935353535353535000000000015
:1004D0000000000000000059597979795935353507
:1004E000350000000000000000000000000000E9EE
:1004F000E9E9E9E9E9E9E9E9E900000000000000CB
:100500000000000000E9E9E9E9E9E9E9E9E9E9E9E8
:10051000E9E9E9000000000000000000E9E9E9E97C
:10052000E9E9E9E9E9E9E9E9E9E9E9E900000000DF
:10053000000000E9E9E9E9E9E9E9E9E9E9E9E9E9E6
:10054000E9E9E9E9E90000000000E9E9E9E9E9E9A8
:10055000E9E9E9FBFBE9E9E9E9E9E9E9E9E90000B9
:1005600000E9E9E9E9E9E9E9E9E9EDFFFFE5E9E9B8
:10057000E9E9E9E9E9E9E90000E9E9E9E9E9E9E9BD
:10058000FBF6E9FFFFE5F6FBE9E9E9E9E9E9E9005E
:10059000E9E9E9E9E9E9EDFFFFF6E5FFFFE5F6FF47
:1005A000FFEDE9E9E9E9E9E9E9E9E9E9E9E9FFFF75
:1005B000FBE5E5FFFFE5E5FBFFFFE9E9E9E9E9E93F
:1005C000E9E9E9E9E9F6FFFFE4C0E5FFFFE5C0E49A
:1005D000FFFFF6E5E9E9E9E9E9E9E9E9E9FFFFED26
:1005E000C0C0E5FFFFE5C0C0EDFFFFE0E5E9E9E9D8
:1005F000E9E9E9E9EDFFFFE0C0C0E4FFFFE4C0C0C6
:10060000E0FFFFE9C0E5E9E9E9E9E9E9EEFFFFC05C
:10061000C0C0C0E4E4C0C0C0C0FFFFE9C0C0E5E99D
:10062000E9E9E9E9EDFFFFC0C0C0C0C0C0C0C0C07B
:10063000C0FFFFE9C0C0C0E5E9E9E9E9E9FFFFE97A
:10064000C0C0C0C0C0C0C0C0E9FFFFE4C0C0C0C0DF
:10065000E9E9E9E9E9FBFFFBC0C0C0C0C0C0C0C018
:10066000FBFFF7C0C0C0C0C0E5E9E9E9E9EDFFFF65
:10067000F6E0C0C0C0C0E0F6FFFFE9C0C0C0C0C027
:1006800000E9E9E9E9E9F2FFFFFFF2E9E9F2FFFF3A
:10069000FFEEC0C0C0C0C00000E9E9E9E9E9E9F245
:1006A000FFFFFFFFFFFFFFFFEDC0C0C0C0C0C000E5
:1006B0000000E9E9E9E9E9E9E9F2FBFFFFFBF2E41F
:1006C000C0C0C0C0C0C00000000000E9E9E9E9E91D
:1006D000E9E5C0C0C0C0C0C0C0C0C0C0C00000000C
:1006E00000000000E9E9E9E9E9E9E5C0C0C0C0C0EF
:1006F000C0C0C0C0000000000000000000E9E9E93F
:10070000E9E9E9E5C0C0C0C0C0C0C0000000000009
:1007100000000000000000E5E9E9E9E9E5C0C0C02B
:10072000C000000000000000000000000000000009
:1007300000000000000000000000000000000000B9
:1007400000000000000000000000000000000000A9
:100750000000000000000000000000000000000099
:100760000000000000000000000000000000000089
:1007700000000000000000000000000092929200C3
:100780000000000000000000000000000000000069
:100790000000000000000000000000000000000059
:1007A0000000000000000000000000000000000049
:1007B0000000000000000000009296969697969622
:1007C0009692000000000000000000000000000001
:1007D0000000000000000000000000000000000019
:1007E0000000000000000000000000000000000009
:1007F0000000000000000092B79696B7BBBBBBB7E5
:10080000979696969292000000000000000000006B
:1008100000000000000000000000000000000000D8
:1008200000000000000000000000000000000000C8
:1008300000000000000000BBFFFFDBBBBBBBBBBB7D
:10084000BBBBB797979696979200000000000000F8
:100850000000000000000000000000000000000098
:100860000000000000000000000000000000000088
:1008700000000000000000BBFFFFFFFFFFFFDBBB2D
:10088000BBBBBBBBBBBBB7979696979792000000CC
:100890000000000000000000000000000000000058
:1008A0000000000000000000000000000000000048
:1008B00000000000000000BBFFFFFFFFFFFFFFFF85
:1008C000FFDBBBBBBBBBBBBBBBB7979796979797F1
:1008D0000000000000000000000000000000000018
:1008E0000000000000000000000000000000000008
:1008F00000000000000000BBFFFFFFFFFFFFFFFF45
:10090000FFFFFFFFDFBBBBBBBBBBBBBBBBB7979650
:100910009697970000000000000000000000000013
:1009200000000000000000000000000000000000C7
:1009300000000000000000BBFFFFFFFFFFFFFFFF04
:10094000FFDFFFFFFFFFFFFFDBBBBBBBBBBBBBBBD7
:10095000B797979697979700000000000000000057
:100960000000000000000000000000000000000087
:1009700000000000000000BBFFFFFFFFFFFFFFFFC4
:10098000FFBBBBDBDFFFFFFFFFFFFFDFBBBBBBBB73
:10099000BBBBBBB7B797960000000000000000008B
:1009A0000000000000000000000000000000000047
:1009B00000000000000000BBFFFFFFFFFFFFFFFF84
:1009C000FFBBBBBBBBBBFFFFFFFFFFFFFFFFFFDBAF
:1009D000BBBBBBBBBBBB960000000000000000001F
:1009E0000000000000000000000000000000000007
:1009F00000000000000000BBFFFFFFFFFFFFFFFF44
:100A0000FFBBFFBB96BBFFFFFFFFFFFFFFFFFFFF2B
:100A1000FFFFBBBBBBBB9600000000000000000056
:100A200000000000000000000000000000000000C6
:100A300000000000000000BBFFFFFFFFFFFFFFFF03
:100A4000FFBBFFBB96BBFFFFFFFFFFFFFFFFFFFFEB
:100A5000FFFFBBBBBBBB9600000000000000000016
:100A60000000000000000000000000000000000086
:100A700000000000000000BBFFFFFFFFFFFFFFFFC3
:100A8000FFBBFFBB96BBFFFFFFFFFFFFFFFFFFFFAB
:100A9000FFFFBBBBBBBB96000000000000000000D6
:100AA0000000000000000000000000000000000046
:100AB00000000000000000BBFFFFBBB7DBFFFFFF33
:100AC000FFBBFFBB96BBFFFFFFFFFFFFFFFFFFFF6B
:100AD000FFFFBBBBBBBB9600000000000000000096
:100AE0000000000000000000000000000000000006
:100AF00000000000000000BBFFFFFFDBB796B7DB84
:100B0000FFBBFFBB96BBFFFFFFFFFFFFFFFFFFFF2A
:100B1000FFFFBBBBBBBB9600000000000000000055
:100B200000000000000000000000000000000000C5
:100B300000000000000000BBFFFFFFFFFFFFDBDB4A
:100B4000FFBBFFBB96BBFFFFFFFFFFFFFFFFFFFFEA
:100B5000FFFFBBBBBBBB9600000000000000000015
:100B60000000000000000000000000000000000085
:100B700000000000000000BBFFFFFFFFFFFFFFFFC2
:100B8000FFBBFFBB96BBFFFFFFFFFFFFFFFFFFFFAA
:100B9000FFFFBBBBBBBB96000000000000000000D5
:100BA0000000000000000000000000000000000045
:100BB00000000000000000BBFFFFFFFFFFFFFFFF82
:100BC000FFBBFFBB96BBFFBBB7DBFFFFFFFFFFFF1A
:100BD000FFFFBBBBBBBB9600000000000000000095
:100BE0000000000000000000000000000000000005
:100BF00000000000000000BBFFFFFFFFFFFFFFFF42
:100C0000FFBBFFBB96BBFFFFDBB796B7DBFFFFFF6A
:100C1000FFFFBBBBBBBB9600000000000000000054
:100C200000000000000000000000000000000000C4
:100C300000000000000000BBFFFFFFFFFFFFFFFF01
:100C4000FFBBFFBB96BBFFFFFFFFFFDBB7DFFFFF75
:100C5000FFFFBBBBBBBB9600000000000000000014
:100C60000000000000000000000000000000000084
:100C700000000000000000BBFFFFFFFFFFFFFFFFC1
:100C8000FFBBFFBB96BBFFFFFFFFFFFFFFFFFFFFA9
:100C9000FFFFBBBBBBBB96000000000000000000D4
:100CA0000000000000000000000000000000000044
:100CB00000000000000000BBFFFFFFFFFFFFFFFF81
:100CC000FFBBFFBB96BBFFFFFFFFFFFFFFFFFFFF69
:100CD000FFFFBBBBBBBB9600000000000000000094
:100CE0000000000000000000000000000000000004
:100CF00000000000000000BBFFFFBBB7DBFFFFFFF1
:100D0000FFB7FFBB96BBFFFFFFFFFFFFFFFFFFFF2C
:100D1000FFFFBBBBBBBB9600000000000000000053
:100D200000000000000000000000000000000000C3
:100D300000000000000000BBFFFFDFDBB796B7DB61
:100D4000FFE4FFD296BBFFFFFFFFFFFFFFFFFFFFA8
:100D5000FFFFBBBBBBBB9600000000000000000013
:100D60000000000000000000000000000000000083
:100D700000000000000000BBFFFFFFFFFFDFDBDB28
:100D8000FFE4FFE4C4E8FFFFFFFFFFFFFFFFFFFFFB
:100D9000FFFFBBBBBBBB96000000000000000000D3
:100DA0000000000000000000000000000000000043
:100DB00000000000000000BBFFFFFFFFFFFFFFFF80
:100DC000FFE4FFE4C4E4FFFFFFFFFFFFFFFFFFFFBF
:100DD000FFFFBBBBBBBB9600000000000000000093
:100DE0000000000000000000000000000000000003
:100DF00000000000000000BBFFFFFFFFFFFFFFFF40
:100E0000FFE4FFE4C4E4FFBBB7DBDFFFFFFFFFFF4E
:100E1000FFFFBBBBBBBB9600000000000000000052
:100E200000000000000000000000000000000000C2
:100E300000000000000000BBFFFFFFFFFFFFFFFFFF
:100E4000FFE4FFE4C4E4FFDFDBB796B7BBDFFFFFDF
:100E5000FFFFBBBBBBBB9600000000000000000012
:100E60000000000000000000000000000000000082
:100E700000000000000000BBFFFFFFFFFFFFFFFFBF
:100E8000FFE4FFE4C4E4FFFFFFFFDFDBB7DBFFFFAE
:100E9000FFFFBBBBBBBB96000000000000000000D2
:100EA0000000000000000000000000000000000042
:100EB00000000000000000BBFFFFFFFFFFFFFFFF7F
:100EC000FFE4FFE4C4E4FFFFFFFFFFFFFFFFFFFFBE
:100ED000FFFFBBBBBBBB9600000000000000000092
:100EE0000000000000000000000000000000000002
:100EF00000000000000000BBFFDFBBB7DBDFDFDF6F
:100F0000DFE4FFE4C4E4FFFFFFFFFFFFFFFFFFFF9D
:100F1000FFFFBBBBBBBB9600000000000000000051
:100F200000000000000000000000000000000000C1
:100F300000000000000000BBFFDBDFDBB796B7DB83
:100F4000DFE4FFE4C4E4DFDFDFDFDFDFDFDFDFDF9D
:100F5000DFFFBBBBBBBB9600000000000000000031
:100F60000000000000000000000000000000000081
:100F700000000000000000BBFFDBDBDFDFDFDBDBAE
:100F8000DFE4FFE4C4E4DFDFDFDFDFDFDFDFDFDF5D
:100F9000DFFFBBBBBBBB96000000000000000000F1
:100FA0000000000000000000000000000000000041
:100FB00000000000000000BBFFDBDBDBDBDFDFDF6E
:100FC000DFE4FFE4C4E4DFDFDFDFDFDFDFDFDFDF1D
:100FD000DFFFBBBBBBBB96000000000000000000B1
:100FE0000000000000000000000000000000000001
:100FF00000000000000000BBFFDBDBDBDBDBDBDF36
:10100000DFE4FFE4C4E4DFBBB7DBDFDFDFDFDFDF2C
:10101000DFFFBBBBBBBB9600000000000000000070
:1010200000000000000000000000000000000000C0
:1010300000000000000000BBFFDBDBDBDBDBDBDBF9
:10104000DBE4FFE4C4E4DFDFBBB796B7BBDFDFDF81
:10105000DFFFBBBBBBBB9600000000000000000030
:101060000000000000000000000000000000000080
:1010700000000000000000BBFFDBDBDBDBDBDBDBB9
:10108000DBE4FFE4C4E4DBDFDFDFDFBBB7DBDFDFB4
:10109000DFFFBBBBBBBB96000000000000000000F0
:1010A0000000000000000000000000000000000040
:1010B00000000000000000BBFFDBB7B7BBDBDBDBE1
:1010C000DBE4FFE4C4E4DBDBDBDBDBDBDBDBDFDF40
:1010D000DFFFBBBBBBBB96000000000000000000B0
:1010E0000000000000000000000000000000000000
:1010F00000000000000000BBFFDBDBBBB79697BB26
:10110000DBE4FFE4C4E4DBDBDBDBDBDBDBDBDBDB07
:10111000DBFFBBBBBBBB9600000000000000000073
:1011200000000000000000000000000000000000BF
:1011300000000000000000BBFFDBDBDBDBDBBBDB18
:10114000DBE4FFE4C4E4DBDBDBDBDBDBDBDBDBDBC7
:10115000DBFFBBBBBBBB9600000000000000000033
:10116000000000000000000000000000000000007F
:1011700000000000000000BBFFDBDBDBDBDBDBDBB8
:10118000DBE4FFE4C4E4DBDBDBDBDBDBDBDBDBDB87
:10119000DBFFBBBBBBBB96000000000000000000F3
:1011A000000000000000000000000000000000003F
:1011B00000000000000000BBFFDBDBDBDBDBDBDB78
:1011C000F2E4E4E4C4E4DBB7B7BBDBDBDBDBDBDBB3
:1011D000DBFFBBBBBBBB96000000000000000000B3
:1011E00000000000000000000000000000000000FF
:1011F00000000000000000BBFFDBDBDBDBDBDBE92A
:10120000EDFAF6E8E4E4D6DBBBB79697BBDBDBDBB5
:10121000DBFFBBBBBBBB9600000000000000000072
:1012200000000000000000000000000000000000BE
:1012300000000000000000BBFFDBDBDBDBDBD2E4F7
:10124000FFFFFFF1E4E4E4D2DBDBDBBBB7DBDBDB9E
:10125000DBFFBBBBBBBB9600000000000000000032
:10126000000000000000000000000000000000007E
:1012700000000000000000BBFFDBDBDBDBDBEDF18F
:10128000FFFFF6E4E4E4E4E4D7DBDBDBDBDBDBDB22
:10129000DBFFBBBBBBBB96000000000000000000F2
:1012A000000000000000000000000000000000003E
:1012B00000000000000000BBFFDBDBDBDBDBE8FA4B
:1012C000FFF6E4E4E4C4E4E4EDDBDBDBDBDBDBDB07
:1012D000DBFFBBBBBBBB96000000000000000000B2
:1012E00000000000000000000000000000000000FE
:1012F00000000000000000BBFFDBDBDBDBDBE8FB0A
:10130000F6E4E4C4C4C4E4E8E4DBDBDBDBDBDBDB26
:10131000DBFFBBBBBBBB9600000000000000000071
:1013200000000000000000000000000000000000BD
:1013300000000000000000BBFFDBDBDBDBDBEDEDD2
:10134000E4E4E4C4C4C4E4F1E8D6DBDBDBDBDBDBF0
:10135000DBFFBBBBBBBB9600000000000000000031
:10136000000000000000000000000000000000007D
:1013700000000000000000BBFFDBDBDBDBDBD2E4B6
:10138000E4E4C4C4C4E4E4F6E8F2DBDBDBDBDBDB8F
:10139000DBFFBBBBBBBB96000000000000000000F1
:1013A000000000000000000000000000000000003D
:1013B00000000000000000BBFFDBDBDBDBDBDBE869
:1013C000E4C4C4C4E4E4EDF6E8F2DBDBDBDBDBDB46
:1013D000DBFFBBBBBBBB96000000000000000000B1
:1013E00000000000000000000000000000000000FD
:1013F00000000000000000BBFFDFDFDFDBDBDBD62F
:10140000E4E4E4E4E4EDF6F6E8D6DBDBDBDBDBDBAF
:10141000DBFFBBBBBBBB9600000000000000000070
:1014200000000000000000000000000000000000BC
:1014300000000000000000BBFFDFDFDFDFDFDFDFD9
:10144000F6E4E4EDF2F6F6F1E8DBDBDBDBDBDBDB3D
:10145000DBFFBBBBBBBB9600000000000000000030
:10146000000000000000000000000000000000007C
:1014700000000000000000BBFFFFFFFFFFDFDFDF19
:10148000DFF6E8E4E8E8E4E4F6DBDBDBDBDBDBDB30
:10149000DBFFBBBBBBBB96000000000000000000F0
:1014A000000000000000000000000000000000003C
:1014B00000000000000000BBBBDBFFFFFFFFFFFFE1
:1014C000FFFFFBF6EDEDEDF6DFDFDFDBDBDBDBDB8C
:1014D000DBFFBBBBBBBB96000000000000000000B0
:1014E00000000000000000000000000000000000FC
:1014F0000000000000000000B7BBBBBBBBDFFFFF6C
:10150000FFFFFFFFFFFFFFDFDFDFDFDFDFDFDFDF0B
:10151000DBFFBBBBBBBB960000000000000000006F
:1015200000000000000000000000000000000000BB
:10153000000000000000000000000000B7BBBBBBC3
:10154000DBFFFFFFFFFFFFFFFFFFFFFFDFDFDFDF4F
:10155000DFFFBBBBBBBB960000000000000000002B
:10156000000000000000000000000000000000007B
:10157000000000000000000000000000000000B7B4
:10158000BBBBBBDBDFFFFFFFFFFFFFFFFFFFFFFF7B
:10159000FFFFBBBBBBBB96000000000000000000CB
:1015A000000000000000000000000000000000003B
:1015B000000000000000000000000000000000002B
:1015C000000000B7BBBBBBDFFFFFFFFFFFFFFFFF5C
:1015D000FFFFBBBBBBBB960000000000000000008B
:1015E00000000000000000000000000000000000FB
:1015F00000000000000000000000000000000000EB
:10160000000000000000B7BBBBBBDBFFFFFFFFFF1C
:10161000FFFFBBBBBBB7960000000000000000004E
:1016200000000000000000000000000000000000BA
:1016300000000000000000000000000000000000AA
:1016400000000000000000000000B7BBBBBBDFFFD4
:10165000FFFFB7979697970000000000000000007A
:10166000000000000000000000000000000000007A
:10167000000000000000000000000000000000006A
:1016800000000000000000000000000000B7BBBB2D
:10169000BBBB9697B70000000000000000000000F0
:1016A000000000000000000000000000000000003A
:1016B000000000000000000000000000000000002A
:1016C000000000000000000000000000000000001A
:1016D00000B7B7000000000000000000000000009C
:1016E00000000000000000000000000000000000FA
:1016F00000000000000000000000000000000000EA
:1017000000000000000000000000000000000000D9
:1017100000000000000000000000000000000000C9
:1017200000000000000000000000000000000000B9
:1017300000000000000000000000000000006C003D
:10174000000000000000F8F8F8F8F80000000000C1
:101750000000000000000000000000000000000089
:101760000000000000000000000000000000000079
:10177000000000000000000000000000F8F8F8F889
:10178000F800000000F8F8F8F8F8F8F8000000F8A1
:10179000F8F8F80000000000000000000000000061
:1017A0000000000000000000000000000000000039
:1017B0000000000000000000000000F8F8F8F8F851
:1017C000F8F8F800F8F8F8F8F4F8F8F80000F8F885
:1017D000F8F8F8F800000000000000000000000029
:1017E00000000000000000000000000000000000F9
:1017F000000000000000000000000000F8F8F8F809
:10180000F8F8F8F8F8F8F8F8F4F8F8F8F8F8F8F85C
:10181000F8F8F8F8F80000000000000000000000F0
:1018200000000000000000000000000000000000B8
:10183000000000000000B0B0000000F8F8F8F8F474
:10184000F8F8F8F4F4F8F8F8F4F8F8F4F4F4F8F830
:10185000F8F4F8F8F8000000B0B000000000000054
:101860000000000000000000000000000000000078
:1018700000000000F8F8F8F8F80000F8F8F8F8F4BC
:10188000F8F8F8F4F4F8F8F4F4F8F8F4F4F4F8F8F4
:10189000F4F8F8F8F80000F8F8F8F8000000000094
:1018A0000000000000000000000000000000000038
:1018B000000000F8F8F8F8F8F8F8F8F4F8F8F8F498
:1018C000F4F8F4F4F4F4F8F4F4F8F4F4F4F4F8F8C4
:1018D000F4F8F8F8F4F4F8F8F8F8F8F80000000074
:1018E00000000000000000000000000000000000F8
:1018F00000000000F8F8F8F8F8F8F8F4F4F8F8F454
:10190000F4F8F4F4F4F4F8F4F4F8F4F4F4F4F8F487
:10191000F4F8F8F4F4F4F8F8F8F8F8F8F80000003F
:1019200000000000000000000000000000000000B7
:10193000000000F8F8F8F4F4F8F8F8F4F4F4F8F823
:10194000F4F8F4F4F4F4F4F4F4F8F4F4F4F4F8F44B
:10195000F4F8F4F4F4F4F8F8F8F4F8F8F800000007
:101960000000000000000000000000000000000077
:10197000000000F8F8F8F8F4F8F8F8F4F4F4F4F8E3
:10198000F4F8F4F4F4F4F4F8F8F8F4F4F4F4F4F407
:10199000F4F4F4F4F4F8F8F8F0F8F8F8F8000000CB
:1019A0000000000000000000000000000000000037
:1019B00000000000F8F8F8F8F4F8F8F4F4F4F4F49F
:1019C000F8F8F8F4F4F4F4F8F8F8F4F4F4F4F4F4BF
:1019D000F4F4F4F4F4F8F8F0F4F8F8F8F80000008F
:1019E0000000000000000000000000000000F800FF
:1019F000F8F8F8F8F4F8F8F8F4F4F8F4F4F4F4F487
:101A0000F8F8F8F4F4F4F4F8F8F4F4F4F4F8F8F47A
:101A1000F4F4F4F4F4F8F4F0F8F8F8F8F4F8F8F86A
:101A200000F80000000000000000000000F8F8F8D6
:101A3000F8F8F8F4F4F4F4F8F8F4F4F8F4F4F4F44E
:101A4000F8F8F8F9F9F9F9F9F9F9F9F9F4F4F4F819
:101A5000F4F4F4F4F4F4F4F4F8F4F4F4F4F8F8F836
:101A6000F8F80000000000000000000000F8F8F89E
:101A7000F8F8F8F8F4F4F4F4F4F4F4F8F4F4F4F80E
:101A8000F9F9F9F9F9FAFAFAF9F9F9F9F9F9F5F4CC
:101A9000F4F4F4F4F4F4F4F8F4F4F4F4F8F8F8F8F2
:101AA000F8F8F8F800000000000000006CF8F8F802
:101AB000F4F8F8F8F4F4F4F4F4F4F8F8F8F8F9F9C0
:101AC000F9FEFEFEFEFEFEFEFEFAFAF9F9F9F5F564
:101AD000F4F4F4F4F4F4F4F4F4F0F4F4F8F8F8F4BE
:101AE000F4F8F80000000000000000006CF8F8F8BE
:101AF000F4F4F4F8F8F4F4F4F4F4F8F8F9F9F9FE7D
:101B0000FEFEFEFEFEFEFEFEFEFAFAF9F9F9F9F51A
:101B1000F4F4F4F4F4F4F4F4F0F4F4F8F8F8F0F481
:101B2000F8F8F800000000000000000000F8F8F8E5
:101B3000F8F4F0F4F8F8F4F4F4F4F4F9F9FEFEFE35
:101B4000FEFEFEFEFEFEFEFEFEFAF9F9F9F9F9F9D7
:101B5000F4F4F4F4F4F4F4F4F4F4F4F4F4F0F4F845
:101B6000F8F8F8F800000000000000000000F8F8A5
:101B7000F8F8F8F4F4F4F4F4F4F4F9F9FEFEFEFEE7
:101B8000FEFEFEFEFEFEFEFEFEF9F9F9F9F9F9F998
:101B9000F9F4F4F4F0F0F4F4F4F4F4F0F0F4F8F808
:101BA000F8F8F80000000000000000000000F8F85D
:101BB000F8F8F8F4F4F4F4F4F4F9F9FEFEFEFEFE9D
:101BC000FEFEFEFEFEFEFEFEFEFDF9F9F9F9F9F954
:101BD000F9F4F4F4F0F0F0F4F4F4F0F0F4F8F8F8C8
:101BE000F8F80000000000000000F800F8F8F8F431
:101BF000F4F4F4F4F4F4F4F4F9F9FEFEFEFEFEFE5F
:101C0000FEFEFEFEFEFEFEFEFEFDFDF9F9F9F9F90F
:101C1000F9F4F4F4F4F0F0F0F4F4F0F4F4F4F4F48F
:101C2000F4F4F8F800F8000000F8F8F8F8F8F8F420
:101C3000F4F4F4F4F4F4F4F9F9F9FEFEFEFEFEFE19
:101C4000FEFEFEFEFEFEFEFEFDFDFDF9F9F9F9F9D0
:101C5000F9F4F4F4F4F0F0F0F0F4F4F4F4F4F0F453
:101C6000F4F8F8F8F8F8000000F8F8F8F8F8F8F8E0
:101C7000F4F4F4F0F4F4F4F9F9FEFEFEFEFEFEFED8
:101C8000FEFEFEFEFEFEFEFDFDFDFDF9F9F9F9F991
:101C9000F8F4F4F4F4F0F0F0F0F4F4F4F0F0F4F418
:101CA000F8F8F8F8F8F8F8F800F8F8F8F8F8F8F8AC
:101CB000F8F4F4F4F4F4F9F9F9FEFEFEFEFDFDFE8D
:101CC000FEFEFEFEFEFEFEFDFDFDFDFDF9F9F9F84E
:101CD000F8F4F4F4F4F4F0F0F0F0F4F0F4F4F4F8D0
:101CE000F8F8F8F8F4F8F80000F8F8F8F4F0F0F480
:101CF000F4F4F4F4F4F4F9F9F9F9FDFDFDFDFDFE59
:101D0000FEFEFEFEFEFEFDFDFDFDFDFDF9F9F8F80F
:101D1000F8F4F4F4F4F0F0F0F0F0F4F4F4F4F4F493
:101D2000F0F0ECF0F8F8F80000F8F8F8F8F8F4F053
:101D3000F0F0F4F4F4F4F8F9F9F9F9F9FDFDFDFD2A
:101D4000FEFEFEFEFEFDFDFDFDFDFDFDF9F8F8F8D1
:101D5000F8F4F4F4F4F4F0F0F0F0F0F4F0F0F0EC67
:101D6000ECF0F8F8F8F8F8000000F8F8F8F8F8F8EF
:101D7000F4F4F4F4F4F4F8F9F9F9F9F9FDFDFDFDE2
:101D8000FDFDFDFDFDFDFDFDFDFDFDFDF8F8F8F897
:101D9000F8F4F4F4F4F4F0F0F0F0F0F0F0F0F0F423
:101DA000F8F8F8F8F8F8F8000000F8F8F8F8F4F4A3
:101DB000F4F4F4F4F4F4F8F9F9F9F9F9FDFDFDFDA2
:101DC000FDFDFDFDFDFDFDFDFDFDFDFDF8F8F8F857
:101DD000F8F4F4F4F4F4F0F0F0F0F0F0F0F4F4F4DB
:101DE000F4F4F8F8F8F8F800000000F8F4F4F4F46B
:101DF000F4F4F4F4F4F4F8F9F9F9F9F9FDFDFDFD62
:101E0000FDFDFDFDFDFDFDFDFDFDFDFCF8F8F8F817
:101E1000F8F4F4F4F4F4F0F0F0F0F0F0F4F4F4F496
:101E2000F4F4F4F4F40000000000F8F8F4F4F4F032
:101E3000F0F0F0F4F4F4F4F9F9F9F9F9F9FDFDFD35
:101E4000FDFDFDFDFDFDFDFDFDFDFCF8F8F8F8F8DC
:101E5000F8F4F4F4F4F0F0F0F0F0F0F0F0F0ECF06E
:101E6000F0F4F4F4F8F8000000F8F8F8F8F8F4F4F6
:101E7000F4F4F4F4F4F4F4F9F9F9F9F9F9FDFDFDE9
:101E8000FDFDFDFDFDFDFDFDFDFCF8F8F8F8F8F8A1
:101E9000F4F4F4F4F4F0F0F0F0F0F0F0F4F4F4F41E
:101EA000F4F4F4F8F8F8F8F8F8F8F8F8F8F8F8F8BE
:101EB000F8F4F4F4F4F4F4F8F9F9F9F9F9F9FDFDAA
:101EC000FDFDFDFDFDFDFDFCFCFCF8F8F8F8F8F863
:101ED000F4F4F4F4F4F0F0F0F0F0F0F0F4F4F4F8DA
:101EE000F8F8F8F8F8F8F8F8F8F8F8F4F4F4F0F08E
:101EF000F0F0F0F4F4F4F4F4F9F9F9F9F9F9F9FD82
:101F0000FDFDFDFDFDFCFCFCF8F8F8F8F8F8F8F82C
:101F1000F4F4F4F4F4F0F0F0F0F0F0F0F0F0ECECB5
:101F2000ECF0F0F0F4F8F8F8F8F8F4F4F0F0F0F081
:101F3000F0F0F0F0F4F4F4F4F8F9F9F9F8F8F8F84E
:101F4000F8F8FCFCFCFCF8F8F8F8F8F8F8F8F8F405
:101F5000F4F4F4F4F0F0F0F0F0F0F0F0F0F0ECEC79
:101F6000ECECECF0F0F4F8F8F8F8F8F8F8F8F8F829
:101F7000F4F4F4F4F4F4F4F4F4F8F8F8F8F8F8F805
:101F8000F8F8F8F8F8F8F8F8F8F8F8F8F8F8F4F4D9
:101F9000F4F4F4F4F0F0F0F0F0F0F0F0F0F0F4F429
:101FA000F8F8F8F8F8F8F8F800F8F8F8F8F8F4F4B1
:101FB000F4F4F4F4F4F4F4F4F4F4F8F8F8F8F8F8C9
:101FC000F8F8F8F8F8F8F8F8F8F8F8F8F8F8F4F499
:101FD000F4F4F4F0F0F0F0F0F0F0F0F0F4F4F4F4E5
:101FE000F4F4F8F8F8F8F8F80000F8F8F4F4F4F479
:101FF000F0F0F0F0F4F4F4F4F4F4F4F8F8F8F8F89D
:10200000F8F8F8F8F8F8F8F8F8F8F8F8F8F4F4F45C
:10201000F4F4F0F0F0F0F0F0F0F0F0F0F0ECECF0C0
:10202000F0F4F4F4F8F8F800000000F8F4F4F4F434
:10203000F4F4F4F4F0F4F4F4F4F4F4F4F4F8F8F858
:10204000F8F8F8F8F8F8F8F8F8F8F8F4F4F4F4F424
:10205000F4F4F0F0F0F0F0F0F0F0F0F0F4F4F4F468
:10206000F0F4F4F4F4000000000000F8F8F4F4F4E4
:10207000F4F4F4F0F0F0F4F4F4F4F4F4F4F4F4F42C
:10208000F8F8F8F8F8F8F8F8F8F4F4F4F4F4F4F4EC
:10209000F4F0F0F0F0F0F0F0F0F0F0ECF0F4F4F434
:1020A000F4F4F4F4F8F800000000F8F8F8F8F8F8A0
:1020B000F4F0F0F0F0F0F0F4F4F4F4F4F4F4F4F4F8
:1020C000F4F4F4F8F4F8F4F4F4F4F4F4F4F4F4F4C8
:1020D000F0F0F0F0F0F0F0F0F0F0F0ECECECECF40C
:1020E000F8F8F8F8F8F8000000F8F8F8F8F8F4F064
:1020F000ECECF0F0F0F0F0F0F4F4F4F4F4F4F4F4C8
:10210000F4F4F4F4F4F4F4F4F4F4F4F4F4F4F4F093
:10211000F0F0F0F0F0F0F0F0F0F0F0ECECECECECD3
:10212000ECF4F8F8F8F8F8B024F8F8F8F4F0ECEC7F
:10213000F0F4F4F4F4F4F0F0F0F0F4F4F4F4F4F473
:10214000F4F4F4F4F4F4F4F4F4F4F4F4F4F0F0F05B
:10215000F0F0F0F0F0F0F0F0F0F0F4F4F4F4F0F06F
:10216000ECE8ECF4F8F8F80000F8F8F4F4F4F8F817
:10217000F8F4F4F4F0F0F0F0F0F0F0F4F4F4F4F437
:10218000F4F4F4F4F4F4F4F4F4F4F4F0F0F0F0F023
:10219000F0F0F0F0F0F0F0F0F0F0F0F0F4F4F4F82B
:1021A000F8F8F4F4F4F8F80000F8F8F8F8F8F8F8AB
:1021B000F4F4F0ECF0F4F4F0F0F0F0F0F0F0F4F40B
:1021C000F4F4F4F4F4F4F4F4F4F0F0F0F0F0F0F0EB
:1021D000F0F0F0F0F0F0F0F0F0F4F4F0ECF0F4F4F3
:1021E000F8F8F8F8F8F8F8B00000F8F8F8F8F8F4AB
:1021F000F4F0F0F4F4F4F0F0F0F0F0F0F0F0F0F0CF
:10220000F0F0F0F0F0F0F0F0F0F0F0F0F0F0F0F0CE
:10221000F0F0F0F0F0F0F0F0ECECF4F4F4F0F0F4B6
:10222000F4F8F8F8F8F80000000000F8F8F8F8F40E
:10223000F4F4F4F4F4F0ECECF0F0F0F0F0F0F0F092
:10224000F0F0F0F0F0F0F0F0F0F0F0F0F0F0F0F08E
:10225000F0F0F0F0F0F0F0F0ECECECF4F4F4F4F476
:10226000F4F4F8F8F8000000000000000000F8F4B2
:10227000F4F4F8F4ECECECF0F0F0F0F0F0F0F0F056
:10228000F0F0F0F0F0F0F0F0F0F0F0F0F0F0F0F04E
:10229000F0F0F0F0F0F0F0F4ECECECE8F4F8F8F436
:1022A000F4F400F400000000000000000000F8F862
:1022B000F8F8F4ECECECF4F4F4F0F0F0F0F0F0F00A
:1022C000F0F0F0F0F0F0F0F0F0F0F0F0F0F0F0F00E
:1022D000F0F0F0F0F0F0F0F0F4F4ECE8E8F4F8F8F6
:1022E000F8F80000000000000000000000F8F8F816
:1022F000F8F4ECECF0F8F4F4ECF0F4F0F0F0F0F0CA
:10230000F0F0F0F0F0F0F0F0F0F0F0F0F0F0F0F0CD
:10231000F0F0F0F0F0F4F0ECF0F4F8F4ECE8F4F8AD
:10232000F8F8F800000000000000000000F8F8F8DD
:10233000F4ECF0F8F8F4F4ECF0F4F0ECECF0F0F08D
:10234000F0F0F0F0F0F0F0F0F0F0F0F0F0F0F0F08D
:10235000F0F0F0ECECECF4F0ECF4F4F8F8F4E8F471
:10236000F8F8F8B0000000000000000000F8F8F8ED
:10237000F0F8F8F8F4F4F0F0F4F4ECECECF0F0F041
:10238000F0F0F0F0F0F0F0F0F0F0F0F0F0F0F0F04D
:10239000F0F0F4ECECE8F4F4F4ECF4F4F8F8F8F021
:1023A000F4F8F8B0000000000000000000F8F8F8B1
:1023B000F8F8F8F8F4F4F4F4F4F0ECECF0F4F0F0ED
:1023C000F0F0F0F0F0F0F0F0F0F0F0F0F0F0F0F00D
:1023D000F0ECF4F4ECE8ECF8F4F4F4F4F8F8F8F8D1
:1023E000F8F8F80000000000000000000000F8F815
:1023F000F8F8F8F4F4F4F4F8F4ECE8F0F4F0ECF4B1
:10240000F0ECECF0F0F0F0F0F0F0F0F0F0ECECECE0
:10241000F4F0F0F4F4E8E8F0F8F4F4F4F4F8F8F890
:10242000F8F800000000000000000000000000F8C4
:10243000F8F8F8F8F4F4F8F8F0E8F0F8F4ECF0F460
:10244000ECECECF4F0F0F0ECECF0F0ECF4ECE8E8B0
:10245000F4F4ECF4F4F4E8E8F8F8F8F4F4F8F8F844
:10246000F800000000000000000000000000000074
:1024700000000000F8F8F8F4E8F0F8F4F4ECF4F4F4
:10248000E8E8F0F4ECF0F4ECECF0F4ECF4F4E8E868
:10249000F0F4F0F0F4F8F4E8F0F8F8F8F8D400000C
:1024A000000000000000000000000000000000002C
:1024B000000000F8F8F8F8ECF0F8F8F4F0F4F4F4B0
:1024C000E8E8F4F4ECF4F4E8E8F0F4ECF4F4ECE824
:1024D000F0F4F4F0F4F8F8F4E8F8F8F8F800000094
:1024E00000000000000000000000000000000000EC
:1024F000000000F8F8F8F4F0F8F8F8F4F4F4F8F064
:10250000E8F0F4F4ECF4F8E8E8F4F4F0F0F4F4E8CB
:10251000ECF8F4F4F4F4F8F8F4F0F8F8F8B000009B
:1025200000000000000000000000000000000000AB
:1025300000000000F8F8F4F8F8F8F8F4F4F8F8F00F
:10254000E8F4F4F4F0F4F8ECE8F4F4F0F0F4F8EC77
:10255000ECF8F8F4F4F4F8F8F8F4F8F8F8000000FF
:10256000000000000000000000000000000000006B
:10257000000000F8F8F8F8F8F8F8F8F8F8F8F8ECCF
:10258000F0F8F4F4F4F4F8ECE8F8F4F4F4F4F8F413
:10259000E8F8F8F8F8F8F8F8F8F8F8F800000000AB
:1025A000000000000000000000000000000000002B
:1025B0000000000000F8F8F8F8F800F8F8F8F8E87B
:1025C000F8F8F8F4F4F4F8F0ECF8F8F4F4F4F8F8B7
:1025D000ECF4F8F8F800F8F8F8F8F800000000005B
:1025E00000000000000000000000000000000000EB
:1025F0000000000000B00000B00000F8F8F8F8F0AB
:10260000F8F8F8F4F4F8F8F0ECF8F8F4F4F4F8F872
:10261000F4F4F8F8F8F800B00000B0000000000092
:1026200000000000000000000000000000000000AA
:10263000000000000000000000000000F8F8F4F8BE
:10264000F8F8F8F8F8F8F8F4F0F8F8F8F8F8F8F816
:10265000F8F4F8F8F80000000000000000000000A6
:10266000000000000000000000000000000000006A
:102670000000000000000000000000F8F8F8F8F882
:10268000F8F8F800F8F8F8F8F4F8F8F800F8F8F8BE
:10269000F8F8F8F80000000000000000000000005A
:1026A000000000000000000000000000000000002A
:1026B00000000000000000000000000000F8F8F832
:1026C000F8F8F80000F8F8F8F8F8F8F8000000F862
:1026D000F8F8F80000000000000000000000000012
:1026E00000000000000000000000000000000000EA
:1026F000000000000000000000000000006C00006E
:102700000000000000F8F8F8F8F8F80000000000F9
:1027100000000000000000000000000000000000B9
:10272000000000000000000000000000250028005C
:102730002B00040404040404040402020202020242
:102740000303030303030102040810204080010275
:1027500004081020010204081020000000080002F4
:1027600001000003040700000000000000008719BA
:1027700011241FBECFEFD8E0DEBFCDBF11E0A0E037
:10278000B1E0EAE5F7E302C005900D92A23AB10785
:10279000D9F723E0A2EAB1E001C01D92AC31B20743
:1027A000E1F713E1C8EBD3E104C02197FE010E94D9
:1027B000A01BC73BD107C9F70E94D5190C94AB1BCE
:1027C0000C940000CF93DF93EC01E0910803F091AB
:1027D00009030190F081E02D8F3F910510F4682FDF
:1027E0000DC06FEF88E093E00995E0910803F09148
:1027F00009036C2F6F5F0190F081E02D88E093E07A
:10280000DF91CF91099490E0FC01E65AF84D2491B4
:10281000FC01EA5BF84D3491FC01EE5CF84DE4916B
:10282000EE23B1F1222339F1233091F038F4213035
:10283000A9F0223001F584B58F7D12C0273091F0C8
:102840002830A1F02430B9F4809180008F7D03C03E
:10285000809180008F77809380000DC084B58F7742
:1028600084BD09C08091B0008F7703C08091B00013
:102870008F7D8093B000F0E0EE0FFF1FE85DF84D14
:10288000A591B4918FB7F894EC913E2B3C938FBFF8
:102890000895CF92DF92EF92FF920F931F93CF9301
:1028A000DF936C017A018B01C0E0D0E0CE15DF052B
:1028B00089F0D8016D918D01D601ED91FC910190C7
:1028C000F081E02DC6010995892B11F47E0102C02B
:1028D0002196ECCFC701DF91CF911F910F91FF900F
:1028E000EF90DF90CF900895FC01918D828D981725
:1028F00061F0828DDF01A80FB11D5D968C91928DE4
:102900009F5F9F73928F90E008958FEF9FEF0895E0
:10291000FC01918D828D981731F0828DE80FF11DA9
:10292000858D90E008958FEF9FEF0895FC01918DC4
:10293000228D892F90E0805C9F4F821B91098F73BD
:10294000992708958FE592E00E94961421E0892B43
:1029500009F420E0822F0895FC01848DDF01A80F87
:10296000B11DA35ABF4F2C91848D90E001968F73B7
:102970009927848FA689B7892C93A089B1898C91D6
:1029800080648C93938D848D981306C00288F3899C
:10299000E02D80818F7D80830895EF92FF920F93C9
:1029A0001F93CF93DF93EC0181E0888F9B8D8C8DFB
:1029B000981305C0E889F989808185FD24C0F62E29
:1029C0000B8D10E00F5F1F4F0F731127E02E8C8DC2
:1029D000E8120CC00FB607FCFACFE889F9898081AC
:1029E00085FFF5CFCE010E94AC14F1CF8B8DFE0197
:1029F000E80FF11DE35AFF4FF0820B8FEA89FB8944
:102A00008081806207C0EE89FF896083E889F98947
:102A100080818064808381E090E0DF91CF911F917D
:102A20000F91FF90EF900895CF93DF93EC01888D85
:102A30008823C9F0EA89FB89808185FD05C0A889C2
:102A4000B9898C9186FD0FC00FB607FCF5CF808148
:102A500085FFF2CFA889B9898C9185FFEDCFCE0192
:102A60000E94AC14E7CFDF91CF91089580E090E011
:102A7000892B29F00E94A21481110C940000089562
:102A80003FB7F8948091540290915502A09156025C
:102A9000B091570226B5A89B05C02F3F19F00196AB
:102AA000A11DB11D3FBFBA2FA92F982F8827820FD4
:102AB000911DA11DB11DBC01CD0142E0660F771F24
:102AC000881F991F4A95D1F7089585ED8093BC0022
:102AD0008091BC0084FDFCCF10925A020895409171
:102AE0000602262F30E0240F311D21323105DCF49F
:102AF00020915A022430C9F4FC0180E090E086174E
:102B000058F4309106022191DC01AC51BE4FA30F65
:102B1000B11D2C930196F3CF80910602680F60934C
:102B2000060280E0089581E0089582E00895089506
:102B3000E0915E0280915D02E81730F4F0E0EC5322
:102B4000FE4F808190E008958FEF9FEF0895909160
:102B50005E0280915D02981750F4E92FF0E0EC538B
:102B6000FE4F208130E09F5F90935E0202C02FEF06
:102B70003FEFC901089580915D0290E020915E02CF
:102B8000821B91090895CF92DF92EF92FF920F93EB
:102B90001F93CF93DF937C01262F972F8A0180917B
:102BA000C301882391F0C62FD72F6E01C40ED51E06
:102BB000CC15DD0571F06991D701ED91FC91019083
:102BC000F081E02DC7010995F3CF642F822F0E9479
:102BD0006F15C801DF91CF911F910F91FF90EF907A
:102BE000DF90CF900895CF93DF931F92CDB7DEB7DC
:102BF00069832091C3012223D1F020915B0220320E
:102C000040F021E030E0FC013383228380E090E05B
:102C100015C080915C02E82FF0E0ED55FE4F9981E0
:102C200090838F5F80935C0280935B0205C061E0BC
:102C3000CE0101960E946F1581E090E00F90DF9128
:102C4000CF91089508950895DC011C962C911C974E
:102C500031E03093C3012093A20110925C021092E4
:102C60005B021D968D919C911E97DC01ED91FC916C
:102C70000190F081E02D099590915B028091A20175
:102C8000913208F046C020915A022111FCCF22E077
:102C900020935A0221E0209359022FEF20932B0218
:102CA00010924D0290934C02A3EAB1E04CE252E044
:102CB000FA012E2F241B291718F42D912193F9CFF7
:102CC00010924E0290914E02880F892B80934E02F3
:102CD00080915802813061F41092580280914E0226
:102CE0008093BB008091BC0083FDF8CF85EC01C0D0
:102CF00085EE8093BC0080915A028230E1F380918E
:102D00002B028F3F31F080912B02803211F08091A5
:102D10002B0210925C0210925B021092C30181E0C0
:102D200090E00895CF93DF93EC016991662329F039
:102D300088E093E00E942416F8CFDF91CF910895A8
:102D40008F929F92AF92BF92CF92DF92EF92FF92BB
:102D50000F931F934C015B016A01790184E391E0B9
:102D60000E949216C4010E94E213C5010E94E21360
:102D7000C6010E94E213C7010E94E213CE9C4001EB
:102D8000CF9C900CDE9C900C1124A12CB12CC12C5A
:102D9000D12C7601C814D904EA04FB04A0F4F8018C
:102DA000EC0DFD1D6491E0910803F0910903019081
:102DB000F081E02D88E093E009958FEFC81AD80ADA
:102DC000E80AF80AE7CF1F910F91FF90EF90DF908C
:102DD000CF90BF90AF909F908F9008950F931F93C7
:102DE000CF93DF938C01EB018AE391E00E9492166E
:102DF000C8010E94E213CE01DF91CF911F910F9184
:102E00000C94E213CF93DF931F92CDB7DEB7682FF8
:102E10008EE391E069830E949216E0910803F0919D
:102E200009030190F081E02D698188E093E00F9023
:102E3000DF91CF910994CF93DF931F92CDB7DEB787
:102E4000682F81E491E069830E949216E091080363
:102E5000F09109030190F081E02D698188E093E011
:102E60000F90DF91CF910994CF93DF93EC0184E42D
:102E700091E00E949216209769F0FE0101900020D7
:102E8000E9F73197AF014C1B5D0BBE0188E093E081
:102E90000E94491460E088E093E0DF91CF910C94A8
:102EA00024160E94A61BCF93DF93EC018C85909192
:102EB0005A029111FCCF91E090935A0290935902DB
:102EC0002FEF20932B0210924D0210924C02909300
:102ED0004E0290914E02880F892B80934E02809172
:102EE0005802813061F41092580280914E02809312
:102EF000BB008091BC0083FDF8CF85EC01C085EE5E
:102F00008093BC0080915A028130E1F380914D02A0
:102F1000811103C080914D0201C081E0ACE2B2E0BA
:102F200024EC31E0F9019E2F921B981718F49D9123
:102F30009193F9CF10925E0280935D028D859E85FC
:102F4000DC01ED91FC910480F581E02D0995892B40
:102F5000A9F38D859E85DC01ED91FC910680F781BA
:102F6000E02DDF91CF91099404970C9453171F9291
:102F70000F920FB60F9211242F933F934F935F93AD
:102F80006F937F938F939F93AF93BF93EF93FF9331
:102F90008FE592E00E94AC14FF91EF91BF91AF9149
:102FA0009F918F917F916F915F914F913F912F9161
:102FB0000F900FBE0F901F9018951F920F920FB693
:102FC0000F9211242F938F939F93EF93FF93E09190
:102FD0006F02F09170028081E0917502F0917602AB
:102FE00082FD12C09081809178028F5F8F73209153
:102FF0007902821751F0E0917802F0E0E15AFD4F3A
:10300000958F8093780201C08081FF91EF919F910D
:103010008F912F910F900FBE0F901F9018951F92B8
:103020000F920FB60F9211242F933F938F939F937C
:10303000AF93BF938091500290915102A0915202A0
:10304000B091530230914F0223E0230F2D3720F42B
:103050000196A11DB11D05C026E8230F0296A11DF2
:10306000B11D20934F028093500290935102A09380
:103070005202B09353028091540290915502A09154
:103080005602B09157020196A11DB11D80935402C2
:1030900090935502A0935602B0935702BF91AF91FF
:1030A0009F918F913F912F910F900FBE0F901F9086
:1030B00018951F920F920FB60F9211242F933F93E2
:1030C0004F935F936F937F938F939F93AF93BF9330
:1030D000EF93FF938091B900887F803609F49CC0FC
:1030E00068F5883209F45BC090F4803109F454C06B
:1030F00038F4882309F4F6C0883009F44DC0F6C0CE
:10310000883109F44CC0803209F45DC0EFC08034CE
:1031100009F468C048F4803309F455C0883309F0D5
:10312000E5C080932B02D8C0803509F44FC08835A4
:1031300009F45DC0883409F0D9C0D6C0883909F4D3
:10314000C7C0A8F4883709F467C038F4883609F492
:1031500063C0803709F460C0C9C0883809F4B8C0BA
:10316000803909F45FC0803809F0C0C05BC0803B83
:1031700009F486C038F4803A09F466C0883A09F444
:103180007FC0B4C0803C09F4A7C0883C09F4A4C047
:10319000883B09F48AC0AAC080914E0210C0909169
:1031A0004D0280914C02981770F5E0914D0281E03C
:1031B0008E0F80934D02F0E0E45DFD4F808180939F
:1031C000BB0085EC86C080932B028EC0E0914D023F
:1031D00081E08E0F80934D028091BB00F0E0E45DB2
:1031E000FD4F808390914D0280914C026EC0E09122
:1031F0004D0281E08E0F80934D028091BB00F0E084
:10320000E45DFD4F80838091590281116DC081E0A2
:103210008093580284EA61C083E080935A0210923E
:103220002A02CFCF80912A02803208F051C0E0916B
:103230002A0281E08E0F80932A028091BB00F0E089
:10324000E65FFD4F8083BDCF85EC8093BC0010927C
:103250005A0280912A02803230F4E0912A02F0E092
:10326000E65FFD4F108260912A0270E0E091080253
:10327000F09109028AE092E0099510922A0236C084
:1032800084E080935A021092070210920602E091A5
:103290000402F0910502099580910602811105C092
:1032A00081E0809306021092E401E091070281E040
:1032B0008E0F80930702F0E0EC51FE4F80818093E7
:1032C000BB009091070280910602981708F479CF0D
:1032D00085E88093BC000AC085EC8093BC00109206
:1032E0005A0204C010922B020E946515FF91EF91C3
:1032F000BF91AF919F918F917F916F915F914F910E
:103300003F912F910F900FBE0F901F901895EFE5F2
:10331000F2E01382128248EE53E060E070E04483F2
:1033200055836683778384E091E09183808385EC85
:1033300090E09587848784EC90E09787868780EC7F
:1033400090E0918B808B81EC90E0938B828B82EC70
:1033500090E0958B848B86EC90E0978B868B118E1A
:10336000128E138E148EACEFB2E013961C921E9246
:10337000129714964D935D936D937C93179784E108
:1033800091E011969C938E93E8E0F3E01382128211
:1033900084E291E09183808380E391E0958384834C
:1033A000B687A58787E284870895789484B582607C
:1033B00084BD84B5816084BD85B5826085BD85B5D9
:1033C000816085BD80916E00816080936E00109257
:1033D00081008091810082608093810080918100D2
:1033E0008160809381008091800081608093800063
:1033F0008091B10084608093B1008091B0008160C1
:103400008093B00080917A00846080937A008091EC
:103410007A00826080937A0080917A008160809344
:103420007A0080917A00806880937A001092C100BF
:1034300010925E0210925D0210925C0210925B028A
:1034400010925A0281E0809359021092580282E150
:103450000E94031483E10E9403148091B9008E7FBF
:103460008093B9008091B9008D7F8093B90088E482
:103470008093B80085E48093BC00E0916F02F091E6
:10348000700282E08083E0916B02F0916C02108206
:10349000E0916D02F0916E028FEC808310927702C2
:1034A000E0917302F091740286E08083E0917102F2
:1034B000F0917202808180618083E0917102F091CD
:1034C0007202808188608083E0917102F0917202C3
:1034D000808180688083E0917102F0917202808126
:1034E0008F7D808387E491E00E94921660E088E0FF
:1034F00093E00E9424168FEF0E9402178BE491E064
:103500000E9492160E9440154B015C018CEBC82E64
:1035100082E0D82EE12CF12C0E944015DC01CB0179
:1035200088199909AA09BB09883E9340A105B105EC
:1035300058F021E0C21AD108E108F10888EE880E9F
:1035400083E0981EA11CB11CC114D104E104F10454
:1035500019F78EE491E00E94921681E090E00E94BB
:10356000E21308E217E120E430E040E450E060E0DC
:1035700070E08AE491E00E94A01608E217E020E4DF
:1035800030E040E450E06AE570E08AE491E00E94B7
:10359000A01608EE14E028E130E048E150E060E0D9
:1035A00070E080E090E00E94A01628E130E048E161
:1035B00050E06EE170E080E090E00E94A01608EA22
:1035C00012E028E130E048E150E06CE370E080E098
:1035D00090E00E94A01608EE14E028E130E048E1F7
:1035E00050E06AE570E080E090E00E94A01608E6F6
:1035F00010E028E130E048E150E068E770E080E06A
:1036000090E00E94A01608EA12E028E130E048E1CC
:1036100050E066E970E080E090E00E94A01689EC3E
:103620000E941B1766E170E083E290E00E94EE16B4
:1036300081E591E00E94341764E370E083E290E05A
:103640000E94EE1688E591E00E94341762E570E072
:1036500083E290E00E94EE168FE591E00E9434171D
:1036600060E770E083E290E00E94EE1685E691E06C
:103670000E9434176EE870E083E290E00E94EE163C
:103680008EE691E00E9434176CEA70E083E290E0ED
:103690000E94EE1683E791E00E9434178EEF0E949D
:1036A000021766E170E08BEE90E00E94EE1689E76B
:1036B00091E00E94341764E370E08BEE90E00E948A
:1036C000EE168FE791E00E94341762E570E08BEE12
:1036D00090E00E94EE1685E891E00E94341760E7C2
:1036E00070E08BEE90E00E94EE168BE891E00E9475
:1036F00034176EE870E08BEE90E00E94EE1681E9E0
:1037000091E00E9434176CEA70E08BEE90E00E942A
:10371000EE1687E991E00E94341788EC0E941B178F
:103720008BE10E94021764E370E08BE990E00E9455
:10373000EE168DE991E00E9434170E943615FDCFF8
:10374000EE0FFF1F0590F491E02D099481E090E0C9
:0A375000F8940C94AB1BF894FFCF23
:10375A0000000000CD14491496147414881414152A
:10376A0000000000F315C315BB15A715981597158A
:10377A00000000002416491453172316FCFF00000A
:10378A00B41722164544494D31004554500053435D
:10379A000053460054540042474300434C005344EC
:1037AA00004B756368796E004F627976616B0050E1
:1037BA006F6B6F6A004B6F7570656C6E6100507548
:1037CA0064610056656E6B750032312E39430032E2
:1037DA00332E31430032302E31430032312E3443FE
:1037EA000032312E31430031352E39430031303029
:0237FA002500A8
:107E0000112484B714BE81FFF0D085E080938100F7
:107E100082E08093C00088E18093C10086E0809377
:107E2000C20080E18093C4008EE0C9D0259A86E02C
:107E300020E33CEF91E0309385002093840096BBD3
:107E4000B09BFECF1D9AA8958150A9F7CC24DD24C4
:107E500088248394B5E0AB2EA1E19A2EF3E0BF2EE7
:107E6000A2D0813461F49FD0082FAFD0023811F036
:107E7000013811F484E001C083E08DD089C08234E0
:107E800011F484E103C0853419F485E0A6D080C0E4
:107E9000853579F488D0E82EFF2485D0082F10E0AE
:107EA000102F00270E291F29000F111F8ED06801E7
:107EB0006FC0863521F484E090D080E0DECF843638
:107EC00009F040C070D06FD0082F6DD080E0C81688
:107ED00080E7D80618F4F601B7BEE895C0E0D1E017
:107EE00062D089930C17E1F7F0E0CF16F0E7DF06D8
:107EF00018F0F601B7BEE89568D007B600FCFDCFD4
:107F0000A601A0E0B1E02C9130E011968C91119780
:107F100090E0982F8827822B932B1296FA010C0160
:107F200087BEE89511244E5F5F4FF1E0A038BF0790
:107F300051F7F601A7BEE89507B600FCFDCF97BE46
:107F4000E89526C08437B1F42ED02DD0F82E2BD052
:107F50003CD0F601EF2C8F010F5F1F4F84911BD097
:107F6000EA94F801C1F70894C11CD11CFA94CF0C13
:107F7000D11C0EC0853739F428D08EE10CD085E9AC
:107F80000AD08FE07ACF813511F488E018D01DD067
:107F900080E101D065CF982F8091C00085FFFCCF94
:107FA0009093C60008958091C00087FFFCCF809118
:107FB000C00084FD01C0A8958091C6000895E0E648
:107FC000F0E098E1908380830895EDDF803219F02E
:107FD00088E0F5DFFFCF84E1DECF1F93182FE3DFCA
:107FE0001150E9F7F2DF1F91089580E0E8DFEE27F6
:047FF000FF270994CA
:027FFE00040479
:0400000300007E007B
:00000001FF
